:020000040800F2
:100000009808002089010008231500081914000829
:1000100021150008F302000879180008000000000C
:10002000000000000000000000000000271500088C
:1000300037030008000000002515000829150008F6
:10004000A3010008A3010008A3010008A301000800
:10005000A3010008A3010008A3010008A3010008F0
:10006000A3010008A3010008A3010008A3010008E0
:10007000A3010008A3010008F5020008010300081D
:10008000A3010008A3010008A3010008A3010008C0
:10009000A3010008A3010008A30100083903000818
:1000A000A3010008A3010008A3010008A3010008A0
:1000B000A3010008A3010008A3010008A301000890
:1000C000A3010008A3010008A3010008A301000880
:1000D000A30100086D180008A3010008A30100088F
:1000E000A3010008A3010008A301000800F002F822
:1000F00000F03AF80AA090E8000C82448344AAF188
:100100000107DA4501D100F02FF8AFF2090EBAE885
:100110000F0013F0010F18BFFB1A43F0010318473B
:100120001818000038180000103A24BF78C878C1A9
:10013000FAD8520724BF30C830C144BF04680C60ED
:10014000704700000023002400250026103A28BF35
:1001500078C1FBD8520728BF30C148BF0B60704739
:100160001FB51FBD10B510BD00F08AF81146FFF78E
:10017000F7FF01F093FB00F0A8F803B4FFF7F2FFDC
:1001800003BC00F0AFF80000094880470948004769
:10019000FEE7FEE7FEE7FEE7FEE7FEE7FEE7FEE737
:1001A000FEE7FEE704480549054A064B7047000094
:1001B0008B150008ED000008980200209808002028
:1001C000980400209804002010B5203AC0F00B805D
:1001D000B1E81850203AA0E81850B1E81850A0E84B
:1001E0001850BFF4F5AF5FEA027C24BFB1E81850A5
:1001F000A0E8185044BF18C918C0BDE810405FEA15
:10020000827C24BF51F8043B40F8043B08BF704790
:10021000D20728BF31F8023B48BF11F8012B28BF95
:1002200020F8023B48BF00F8012B70474FF0000256
:1002300000B5134694469646203922BFA0E80C50DC
:10024000A0E80C50B1F12001BFF4F7AF090728BFB7
:10025000A0E80C5048BF0CC05DF804EB890028BF33
:1002600040F8042B08BF704748BF20F8022B11F05C
:10027000804F18BF00F8012B7047704770477047D8
:10028000754600F02BF8AE4605006946534620F04F
:100290000700854618B020B5FFF784FFBDE8204071
:1002A0004FF000064FF000074FF000084FF0000B32
:1002B00021F00701AC46ACE8C009ACE8C009ACE8E5
:1002C000C009ACE8C0098D46704710B50446AFF3CD
:1002D00000802046BDE81040FFF74FBF0048704740
:1002E0003802002001491820ABBEFEE726000200BC
:1002F0007047FEE7014800F093B80000F4010020C9
:10030000014800F08DB80000B001002030B590F831
:1003100040500124AC40C56B6C6004686360436866
:10032000102B036803D099600068C26030BD9A60EA
:100330000068C16030BD7047202000F099B972B6E6
:10034000FEE710B590F821100022022905D0042103
:10035000816380F82020012010BD01680B6823F024
:100360000E030B6001680B6823F001030B6090F82B
:100370004030C46B012101FA03F3636080F821105F
:1003800080F82020104610BD10B590F821100024F0
:10039000022903D00421816301243DE001680A6839
:1003A00022F00E020A6001680A6822F001020A6067
:1003B0001A4A0168914201D1012121E0174A143201
:1003C000914201D110211BE0144A2832914201D1FF
:1003D000891515E0114A3C32914201D189140FE090
:1003E0000E4A5032914202D14FF4803108E00B4A5C
:1003F0006432914202D14FF4801101E04FF08071DC
:10040000064A083A5160012180F82110002180F845
:100410002010416B01B18847204610BD0800024002
:100420002DE9F05FC16B0C6801680B68D0F840C023
:10043000042202FA0CF2494DDFF824A1494E4A4F3A
:10044000DFF828B1DFF828E122422CD05A072AD55C
:100450000A68920603D40A6822F004020A6001685E
:10046000A94201D1042219E0514501D1402215E0F1
:10047000B14202D14FF4806210E0B94202D14FF490
:1004800080420BE0594502D14FF4802206E07145CD
:1004900002D14FF4800201E04FF080622F49083909
:1004A0004A60C16A3BE04FF0020808FA0CF818EA0B
:1004B000040F4FF000094FF0010235D05FEA837856
:1004C00032D50B689B0605D40B6823F00A030B603A
:1004D00080F821200168A94201D1022219E051458A
:1004E00001D1202215E0B14202D14FF4007210E098
:1004F000B94202D14FF400520BE0594502D14FF4FA
:10050000003206E0714502D14FF4001201E04FF0D5
:100510000072124908394A6080F82090816A0029E7
:100520001AD0BDE8F05F0847082505FA0CF525420A
:1005300012D01B0710D50B6823F00E030B6090F848
:100540004010C36B02FA01F15960826380F82120E8
:1005500080F82090016BE2E7BDE8F09F08000240C0
:100560001C0002403000024044000240580002409B
:100570006C00024030B528B308C81349142219444E
:10058000B1FBF2F18900C163104981630221417717
:100590001A6843F6F0718A43D0E900142143D0E988
:1005A00002452C4321430469214344692143846962
:1005B00021431143196000214163012242770177F1
:1005C000084630BD012030BDF8FFFDBF00000240ED
:1005D00070B5044690F82000002501280CD00120B9
:1005E00084F8200094F821600020012E06D084F8C1
:1005F00020000225284670BD022070BD022684F826
:100600002160A0632068066826F001060660204687
:10061000FFF77CFEE06A00282068016802D041F004
:100620000E0106E021F0040101602068016841F03C
:100630000A0101602068016841F001010160D9E709
:1006400070B5044600F01EF90546601C02D004484F
:100650000078044400F016F9401BA042FAD370BDA4
:10066000180000200221014800F0FEB800080140F7
:10067000044910B50A68024202D00860FFF7F2FF91
:1006800010BD0000140401402DE9F84FDFF8B891C7
:10069000002409F1040A0AF1040B23460F270BF189
:1006A000040EC9E00125A5402A40AA427DD1674E2B
:1006B000D1F804C0ACEB0608B44532D014DCBCF170
:1006C000030F3AD009DCBCF1000F2AD0BCF1010FB6
:1006D0001CD0BCF1020F31D11DE0BCF1110F17D0BD
:1006E000BCF1120F2AD119E0B8F5881F19D006DC29
:1006F000B8F5803F15D0B8F5801F1FD111E0B8F5CF
:10070000001F0ED0B8F5041F18D10AE0CB6815E021
:10071000CB681B1D12E0CB6808330FE0CB680C33AD
:100720000CE08B682BB1012B4FF0080303D045611F
:1007300004E0042302E0056100E00023FF2A01D861
:10074000064601E000F104064FEA840501D9A5F14F
:100750002005D6F8008007FA05FC28EA0C0803FA01
:1007600005F548EA0508C6F800804D68ED0062D539
:10077000374DAE6946F00106AE61AD6924F003065F
:1007800005F001050095334D06EB050CDCF808502B
:10079000A607360F07FA06F825EA0805DFF8B8803D
:1007A000404503D14FF0000817E044E0DFF8AC808B
:1007B000404502D14FF001080FE0DFF8A48040452A
:1007C00002D14FF0020808E0DFF89880404502D1DE
:1007D0004FF0030801E04FF0040808FA06F848EA71
:1007E0000508CCF808804D68D9F80060ED034D4647
:1007F00001D5164300E096432E604D68DAF800609C
:10080000AD03554601D5164300E096432E604D6872
:10081000DBF80060ED025D4601D5164300E096432B
:100820002E604D68DEF80060AD02754601D51643B6
:1008300000E096432E60641C0D682A46E5407FF474
:1008400031AFBDE8F88F0000000401400000111036
:10085000001002400000014000080140000C01406F
:100860000010014000140140C26821EA02030A405E
:1008700043EA0241016170470AB10161704709040E
:10088000FBE7000001488068704700001800002066
:100890000248816802781144816070471800002086
:1008A000074810B5016841F010010160032000F015
:1008B00075F80F2000F006F800F024F8002010BDB5
:1008C0000020024070B50D4D04464FF47A7128782F
:1008D000B1FBF0F00A490968B1FBF0F000F0ECFA66
:1008E00048B9102C07D200222146501E00F036F8DD
:1008F00000206C6070BD012070BD00001800002059
:10090000240000200C4808B5816941F00101816193
:10091000816901F001010091C16941F08051C1611B
:10092000C06900F0805000900448416821F0E06107
:1009300041F00071416008BD00100240000001401C
:10094000002809DB00F01F020121914040098000CE
:1009500000F1E020C0F8001170470000F0B40E4B29
:100960001B680C46C3F30223C3F10705042D00D90D
:100970000425191D072901D2002300E0DB1E0126F2
:1009800006FA05F1491E214099409E40761E164008
:100990003143F0BC00F071BF0CED00E0064900F0FF
:1009A000070208684FF6FF03184040EA0220034A96
:1009B00010430860704700000CED00E00000FA05ED
:1009C0002DE9F0470F46050061D0434E306800F036
:1009D0000700B84209D2306820F007003843306081
:1009E000306800F00700B84251D128683B4C8107BD
:1009F00012D5400703D5606840F4E0606060287855
:100A0000000703D5606840F4605060606068A968C2
:100A100020F0F000084360602878C00728D068689C
:100A2000012810D02168022810D0890700292EDA69
:100A3000616821F0030101436160FFF723FF8046F5
:100A400041F288390DE021688903EFE78901EDE77C
:100A5000FFF718FFA0EB0801494502D90320BDE8C4
:100A6000F0876068696800F00C00B0EB810FEFD18F
:100A7000306800F00700B8420BD9306820F007005A
:100A800038433060306800F00700B84201D00120E0
:100A9000E5E72878400705D56068E96820F4E0605C
:100AA000084360602878000706D56068296920F44B
:100AB000605040EAC100606000F038F86168084AA0
:100AC000C1F30311515CC84006490860064800683C
:100AD000FFF7F8FE0020C2E70020024000100240AD
:100AE00020190008240000201C00002004480549AB
:100AF00000684968044AC1F30221515CC84070474C
:100B00002400002000100240301900080448054964
:100B100000684968044AC1F3C221515CC84070476B
:100B200024000020001002403019000812A185B0F6
:100B30000FC98DE80F0014A0144A00680490516892
:100B4000134801F00C03042B10D0082B0ED1C1F375
:100B50008343C9031DF803000AD5516804AAC1F3F1
:100B60004041515C0A4A5043B0FBF1F005B0704778
:100B700008494843FAE7000002030405060708098C
:100B80000A0B0C0D0E0F10100102000000100240A5
:100B900000127A0000093D002DE9F84F040070D0E2
:100BA0002078C04DC00749D06868C0F38100012893
:100BB00007D06868C0F38100022809D16868C003C3
:100BC00006D52868800339D560680028E7D035E06D
:100BD0006068B0F5803F0BD010B1B0F5A02F11D0F8
:100BE000286820F480302860286820F4802002E003
:100BF000286840F480302860606890B1FFF742FEBA
:100C000006460AE0286840F480202860F0E700BF2C
:100C1000FFF738FE801B642873D828688003F7D557
:100C20000CE0FFF72FFE064605E000BFFFF72AFEA7
:100C3000801B6428F0D828688003F7D420789A4E67
:100C400080074FF001094FF0000839D5686810F0AF
:100C50000C0F07D06868C0F38100022809D16868CA
:100C6000C00306D42868800714D52069012808D15C
:100C700010E02069B0B1C6F80090FFF703FE074608
:100C800005E00AE1FFF7FEFDC01B0228C4D8286872
:100C90008007F7D52868616920F0F80040EAC100B4
:100CA00028600DE0C6F80080FFF7ECFD074604E081
:100CB000FFF7E8FDC01B022823D828688007F7D477
:100CC000207800072CD57948A169D9B1C0F80090E7
:100CD000FFF7D8FD074604E0FFF7D4FDC01B02284C
:100CE0000FD8686A8007F7D571484FF4FA51006849
:100CF000B0FBF1F0009000BF0098411E0091FAD2C5
:100D00000EE080E0C0F80080FFF7BCFD074604E07D
:100D1000FFF7B8FDC01B022875D8686A8007F7D4B2
:100D20002078400760D5E8690027C00008D4E8694A
:100D300040F08050E861E869012700F080500090A1
:100D40005C480168C90513D40168834641F4807189
:100D50000160FFF797FD824606E000BFFFF792FDB6
:100D6000A0EB0A0064284ED8DBF80000C005F5D5DA
:100D7000E06801280AD008B1052813D0286A20F0BD
:100D800001002862286A20F0040002E0286A40F08E
:100D900001002862E06841F2883B98B1FFF772FDDC
:100DA00082460BE0286A40F004002862EEE700BFAC
:100DB000FFF768FDA0EB0A0159455AD8286A800759
:100DC000F6D50CE0FFF75EFD824605E0FFF75AFD21
:100DD000A0EB0A0159454CD8286A8007F6D41FB108
:100DE000E86920F08050E861E06988B36968C1F380
:100DF0008101022944D00228C6F8608004D0FFF7A0
:100E000041FD044638E034E0FFF73CFD074604E0CE
:100E1000FFF738FDC01B02282BD828688001F7D4C3
:100E2000206AB0F5803F05D16868A16820F40030E1
:100E300008436860D4E908010843696821F4741123
:100E400008436860C6F86090FFF71CFD044606E0A2
:100E500025E000BFFFF716FD001B022809D828680F
:100E60008001F7D51BE000BFFFF70CFD001B022837
:100E700002D90320BDE8F88F28688001F4D40EE081
:100E80000128F7D06868226A00F48031914204D1C9
:100E9000616A00F47010884201D00120EAE7002066
:100EA000E8E7000000100240000042428004424295
:100EB000240000200070004010B5401EB0F1807F7B
:100EC00001D3012010BD4FF0E02460610F216017B5
:100ED00000F0D3FC0020A06107202061002010BD9D
:100EE00070477047F8B5026804461068D1685369C6
:100EF00010F00F0F4FF0000553D003F0010601F47E
:100F0000907737435FD0C20705D0CA0503D5226C5E
:100F100042F001022264420705D5DA0703D0226CB1
:100F200042F002022264820705D5DA0703D0226C60
:100F300042F004022264020707D501F02002324386
:100F400003D0226C42F008022264226C002A34D0C2
:100F5000800604D5880602D5204600F081FB206873
:100F60004069216CC0F38010090700D430B32046DB
:100F700000F055FB2068416949061BD5416921F005
:100F800040014161A06BA8B158494163A06BFFF7D4
:100F9000FBF9002811D0A06B416B01B0BDE8F04017
:100FA000084783060FD58B060DD52046BDE8F840CF
:100FB00000F056BB2046FFF794FFF8BD2046FFF730
:100FC00090FF2564F8BD266B2023012E52D1C60662
:100FD00050D5CE064ED51068506800905069400636
:100FE0002AD5A16B086840680004000CEAD0A68DE1
:100FF0008642E7D9E0858869202818D0D06820F497
:101000008070D0602068416921F001014161206851
:10101000416921F04001416184F83E302563206838
:10102000C16821F01001C160A06BFFF78AF9A08DA3
:10103000E18D401A81B219E0A08DE18D401A81B294
:10104000E08D0028BED00029BCD0D06820F490707C
:10105000D0602068426922F00102426184F83E308B
:1010600025632068C26822F01002C2602046FFF7A4
:1010700037FFF8BD05062BD50D0629D594F83D00A0
:101080002128F6D1A068B0F5805F01D12069B0B108
:10109000206A411C2162216800784860E08C401E73
:1010A0000004000CE084E4D12068C16821F08001D4
:1010B000C1602068C16841F04001C160F8BD206A8C
:1010C0000088C0F308005060206A801C2062E5E7B9
:1010D0004006F3D54806F1D5D168204621F04001FD
:1010E000D16084F83D3000F095F9F8BD8D15000809
:1010F00070B5040004D094F83D00002510B106E05E
:10110000012070BD84F83C50204600F023F82420D4
:1011100084F83D002068C16821F40051C160204678
:1011200000F0FAFA2068016921F490410161206819
:10113000416921F02A0141612068C16841F40051F0
:10114000C1602564202084F83D0084F83E00002022
:1011500070BD00002DE9F04186B0002406460094E1
:1011600001940294039400682D49884255D12D487A
:10117000816941F480418161816901F48041049178
:10118000816941F0040181618069274D00F004000C
:1011900004904FF40070009002200190032003900F
:1011A00069462846FFF770FA2815CDE9000469461C
:1011B00028460294FFF768FA1D4D1C484FF080083E
:1011C000C5E90004C5E902482C6187146C61C5E9D2
:1011D00006472846FFF7CEF908B1FFF7B0F8B56328
:1011E0006E621248134D143801C51020A5E8110194
:1011F000104845F810496C61C5E90647FFF7BAF990
:1012000008B1FFF79CF875630022114625206E6235
:10121000FFF7A4FB2520FFF793FB06B0BDE8F081A4
:101220000038014000100240000801405800024010
:10123000B0010020F401002090F83E30202B0ED1A8
:1012400059B152B190F83C30012B08D0012380F8FD
:101250003C300023036300F0BBBA0120704702203A
:101260007047000070B51C4E00251C4C30784FF6BE
:10127000FF73FF280DD3357000202554401CFF2834
:10128000FBDB154915481422891C883800F028F822
:1012900018E071782154401CC2B2A018327010F8C6
:1012A000011C0A290ED110F8020C0D280AD10B4995
:1012B000A1F1880000F014F8357000202554401C7E
:1012C000FF28FBDB0449BDE8704004480122491CAB
:1012D0008838FFF7B1BF000000000020B0000020F8
:1012E0002DE9F843044690F83D001F4616460D468A
:1012F00020284CD1C5B1BEB194F83C00012846D09D
:10130000012084F83C004FF00008C4F84080212000
:1013100084F83D00FFF7B6FAA6848146E684A0680B
:10132000B0F5805F03D004E00120BDE8F8832069B8
:1013300028B12E465FF0000584F83C800EE00026C0
:10134000FAE78021204600F05EFAA0B9AEB116F8A7
:10135000010B21684860E08C401EE084E08C4B4625
:101360004FF0000200970028EBD14FF040012046DB
:1013700000F049FA30B10320D7E735F8020BC0F38B
:101380000800E6E7202084F83D000020CDE7022099
:10139000CBE7000070B5044690F83D00202830D11E
:1013A00069B362B394F83C0001282AD0012084F884
:1013B0003C002162A284E28400252564212084F877
:1013C0003D00636B10489862636B1048D862636B92
:1013D0000F481863606B134645632668606B321DC7
:1013E000FFF7F6F821686FF04000086084F83C5081
:1013F0002068416941F080014161002070BD0120F9
:1014000070BD022070BD0000E71500081516000829
:101410009D15000870477047FEE70000174808B5A3
:10142000416941F0010141614069154900F0010045
:101430000090144801604FF4804141604021816078
:101440008021C1600021016141618161C161FFF7BB
:1014500091F808B172B6FEE7002211460E20FFF7A0
:101460007DFA0E20FFF76CFA002211460F20FFF7DD
:1014700075FABDE808400F20FFF762BA001002407D
:10148000080002406C00002030B585B000242048E0
:101490000094019402940394816941F020018161D8
:1014A000816901F020010491816941F004018161A9
:1014B000816901F004010491816941F008018161B1
:1014C0008069144D00F00800049001220221284692
:1014D000FFF7D2F902210120CDE90010CDE9024148
:1014E00069462846FFF7D0F8202000900A48CDE949
:1014F000010469460948FFF7C7F800221146172082
:10150000FFF72CFA1720FFF71BFA05B030BD0000DB
:10151000001002400008014000001110000C0140C2
:10152000FEE7FEE770477047FFF7B2B930B58FB0FE
:1015300028216846FEF77AFE14210AA8FEF776FEF7
:1015400001210804CDE90010002402940225049131
:10155000CDE907504FF4E01009906846FFF71CFBF7
:1015600008B172B6FEE70F20CDE90A054FF480609E
:10157000CDE90C4002210AA80E94FFF721FA0028B9
:1015800001D072B6FEE70FB030BD704710B5406AAB
:101590000021C185C184FFF7A4FC10BD70B5446A69
:1015A0002068406994F83D10C0F3C010002521293F
:1015B00004D118B1E584204600F049F8206840695C
:1015C00094F83E10C0F38010222904D118B1E585AB
:1015D000204600F024F8206C40F0100020642046E3
:1015E000FFF77FFC70BD10B50146406A09680968C5
:1015F00089060CD40021C18401684A6922F0800266
:101600004A610068C16841F04001C16010BDFFF748
:1016100001FF10BD10B5406AFFF7FDFE10BD016867
:10162000CA6822F49072CA6001684A6922F0010215
:101630004A61016B012904D10168CA6822F01002D5
:10164000CA60202180F83E100021016370470168C4
:10165000CA6822F0C002CA60202180F83D1070479D
:1016600008B590F83E10222901D0022008BD8268FA
:101670004FF480539A4201D1016921B1816A9A42A3
:101680001BD04AB10AE00268816A5268C2F30802BC
:101690000A80816A891C08E0026972B10268526896
:1016A00002F07F020A70816A491C8162C18D491E65
:1016B0000904090CC18503D019E002685268F1E7FA
:1016C0000168CA6822F02002CA600168CA6822F470
:1016D0008072CA6001684A6922F001024A612021D1
:1016E00080F83E10016B012903D0FFF7BBFD0020FD
:1016F00008BD002101630168CA6822F01002CA60B7
:1017000001680A68D20602D50A6849680091818D8D
:10171000FFF7E6FBEBE7000070B5044600680169DF
:10172000E26821F44051114301612169A068084336
:10173000616908432168CA6841F20C639A43024315
:10174000CA6020684169A26921F440711143416176
:101750001E492068884202D1FFF7D8F901E0FFF75F
:10176000C5F900EBC00101EB001260686421800044
:10177000B2FBF0F3B3FBF1F36FF018067343B2FB67
:10178000F0F5B2FBF0F605EB8305322303EB05150C
:10179000B5FBF1F5B6FBF1F605F0F00505EB061526
:1017A000B2FBF0F6B2FBF0F0B0FBF1F06FF0180214
:1017B000504306EB800003EB0010B0FBF1F0216812
:1017C00000F00F002844886070BD00000038014020
:1017D00081628285C28500210164222280F83E2038
:1017E00080F83C100168CA6842F48072CA600168DF
:1017F0004A6942F001024A610068C16841F0200173
:10180000C160002070472DE9F041984617460E460A
:101810000446069D1DE0681C1BD02DB1FFF732F871
:10182000A0EB0800A84214D92068C16821F4D07147
:10183000C1602068416921F001014161202084F8E4
:101840003D0084F83E00002084F83C000320BDE801
:10185000F0812068006836EA000004D00020B84219
:10186000D9D00020F3E70120F9E700000148FFF795
:1018700039BB000028000020FEE70907090E0028F8
:1018800004DB00F1E02080F80014704700F00F0046
:1018900000F1E02080F8141D7047000086B0FEF7CC
:1018A000FFFF142216A16846FEF78EFCFFF73EFEEE
:1018B000FFF7EAFD184817490C2201604FF4E131A7
:1018C000416000218160C160C0E904128161C16191
:1018D000FFF70EFC08B172B6FEE7FFF79FFD01228D
:1018E0000E490D48FFF7A8FC4FF47A74112269469F
:1018F0000948FFF74FFD2046FEF7A2FEF6E700007D
:1019000048454C4C4F20574F524C44A3A1A3A1A390
:10191000A100000000380140280000200100002044
:10192000000000000000000001020304060708098F
:101930000000000001020304581900080000002004
:101940002800000028010008801900082800002055
:1019500070080000440100080000CAFDBEDDD2E7A7
:10196000B3F628B4F3D3DA323536290D0A00000075
:101970000100000010000000000000000024F4003E
:04000005080000ED02
:00000001FF
